{
  "_format": "hh-sol-artifact-1",
  "contractName": "VoteDapp",
  "sourceName": "contracts/VoteDapp.sol",
  "abi": [
    {
      "inputs": [],
      "stateMutability": "payable",
      "type": "constructor"
    },
    {
      "anonymous": false,
      "inputs": [
        {
          "indexed": true,
          "internalType": "address",
          "name": "from",
          "type": "address"
        },
        {
          "indexed": false,
          "internalType": "uint256",
          "name": "timestamp",
          "type": "uint256"
        },
        {
          "indexed": false,
          "internalType": "string",
          "name": "message",
          "type": "string"
        }
      ],
      "name": "NewVote",
      "type": "event"
    },
    {
      "inputs": [],
      "name": "getAllVotes",
      "outputs": [
        {
          "components": [
            {
              "internalType": "address",
              "name": "voter",
              "type": "address"
            },
            {
              "internalType": "string",
              "name": "message",
              "type": "string"
            },
            {
              "internalType": "uint256",
              "name": "timestamp",
              "type": "uint256"
            }
          ],
          "internalType": "struct VoteDapp.Vote[]",
          "name": "",
          "type": "tuple[]"
        }
      ],
      "stateMutability": "view",
      "type": "function"
    },
    {
      "inputs": [],
      "name": "getTotalBiden",
      "outputs": [
        {
          "internalType": "uint256",
          "name": "",
          "type": "uint256"
        }
      ],
      "stateMutability": "view",
      "type": "function"
    },
    {
      "inputs": [],
      "name": "getTotalTrump",
      "outputs": [
        {
          "internalType": "uint256",
          "name": "",
          "type": "uint256"
        }
      ],
      "stateMutability": "view",
      "type": "function"
    },
    {
      "inputs": [],
      "name": "getTotalVotes",
      "outputs": [
        {
          "internalType": "uint256",
          "name": "",
          "type": "uint256"
        }
      ],
      "stateMutability": "view",
      "type": "function"
    },
    {
      "inputs": [
        {
          "internalType": "address",
          "name": "",
          "type": "address"
        }
      ],
      "name": "lastVotedAt",
      "outputs": [
        {
          "internalType": "uint256",
          "name": "",
          "type": "uint256"
        }
      ],
      "stateMutability": "view",
      "type": "function"
    },
    {
      "inputs": [
        {
          "internalType": "string",
          "name": "_message",
          "type": "string"
        }
      ],
      "name": "votebiden",
      "outputs": [],
      "stateMutability": "nonpayable",
      "type": "function"
    },
    {
      "inputs": [
        {
          "internalType": "string",
          "name": "_message",
          "type": "string"
        }
      ],
      "name": "votetrump",
      "outputs": [],
      "stateMutability": "nonpayable",
      "type": "function"
    }
  ],
  "bytecode": "0x60806040526200004f6040518060400160405280601981526020017f57652068617665206265656e20636f6e737472756374656421000000000000008152506200007760201b620007ab1760201c565b606444426200005f9190620001c4565b6200006b919062000261565b60038190555062000308565b62000117816040516024016200008e919062000184565b6040516020818303038152906040527f41304fac000000000000000000000000000000000000000000000000000000007bffffffffffffffffffffffffffffffffffffffffffffffffffffffff19166020820180517bffffffffffffffffffffffffffffffffffffffffffffffffffffffff83818316178352505050506200011a60201b60201c565b50565b60008151905060006a636f6e736f6c652e6c6f679050602083016000808483855afa5050505050565b60006200015082620001a8565b6200015c8185620001b3565b93506200016e8185602086016200022b565b6200017981620002f7565b840191505092915050565b60006020820190508181036000830152620001a0818462000143565b905092915050565b600081519050919050565b600082825260208201905092915050565b6000620001d18262000221565b9150620001de8362000221565b9250827fffffffffffffffffffffffffffffffffffffffffffffffffffffffffffffffff0382111562000216576200021562000299565b5b828201905092915050565b6000819050919050565b60005b838110156200024b5780820151818401526020810190506200022e565b838111156200025b576000848401525b50505050565b60006200026e8262000221565b91506200027b8362000221565b9250826200028e576200028d620002c8565b5b828206905092915050565b7f4e487b7100000000000000000000000000000000000000000000000000000000600052601160045260246000fd5b7f4e487b7100000000000000000000000000000000000000000000000000000000600052601260045260246000fd5b6000601f19601f8301169050919050565b61101780620003186000396000f3fe608060405234801561001057600080fd5b506004361061007d5760003560e01c806349dbcc731161005b57806349dbcc73146100ec578063851b6ef2146101085780639a0e7d6614610126578063a6604a81146101445761007d565b8063016aa1e9146100825780630bab5455146100a05780634382d0c2146100bc575b600080fd5b61008a610162565b6040516100979190610d14565b60405180910390f35b6100ba60048036038101906100b59190610a52565b61016c565b005b6100d660048036038101906100d19190610a29565b6103cd565b6040516100e39190610d14565b60405180910390f35b61010660048036038101906101019190610a52565b6103e5565b005b610110610647565b60405161011d9190610cb0565b60405180910390f35b61012e610798565b60405161013b9190610d14565b60405180910390f35b61014c6107a1565b6040516101599190610d14565b60405180910390f35b6000600154905090565b42600a600560003373ffffffffffffffffffffffffffffffffffffffff1673ffffffffffffffffffffffffffffffffffffffff168152602001908152602001600020546101b99190610e26565b106101f9576040517f08c379a00000000000000000000000000000000000000000000000000000000081526004016101f090610cf4565b60405180910390fd5b42600560003373ffffffffffffffffffffffffffffffffffffffff1673ffffffffffffffffffffffffffffffffffffffff16815260200190815260200160002081905550600160008082825461024f9190610e26565b9250508190555060018060008282546102689190610e26565b925050819055506102ae336040518060400160405280601481526020017f68617320766f74656420666f72207472756d7021000000000000000000000000815250610844565b600460405180606001604052803373ffffffffffffffffffffffffffffffffffffffff16815260200183815260200142815250908060018154018082558091505060019003906000526020600020906003020160009091909190915060008201518160000160006101000a81548173ffffffffffffffffffffffffffffffffffffffff021916908373ffffffffffffffffffffffffffffffffffffffff160217905550602082015181600101908051906020019061036d929190610909565b506040820151816002015550503373ffffffffffffffffffffffffffffffffffffffff167ff3bb4a59f9a41b07650fa6eb0aaaf8f6e78fe9a712e0c0989ee060358403a89c42836040516103c2929190610d2f565b60405180910390a250565b60056020528060005260406000206000915090505481565b426000600560003373ffffffffffffffffffffffffffffffffffffffff1673ffffffffffffffffffffffffffffffffffffffff168152602001908152602001600020546104329190610e26565b10610472576040517f08c379a000000000000000000000000000000000000000000000000000000000815260040161046990610cf4565b60405180910390fd5b42600560003373ffffffffffffffffffffffffffffffffffffffff1673ffffffffffffffffffffffffffffffffffffffff1681526020019081526020016000208190555060016000808282546104c89190610e26565b925050819055506001600260008282546104e29190610e26565b92505081905550610528336040518060400160405280601481526020017f68617320766f74656420666f7220626964656e21000000000000000000000000815250610844565b600460405180606001604052803373ffffffffffffffffffffffffffffffffffffffff16815260200183815260200142815250908060018154018082558091505060019003906000526020600020906003020160009091909190915060008201518160000160006101000a81548173ffffffffffffffffffffffffffffffffffffffff021916908373ffffffffffffffffffffffffffffffffffffffff16021790555060208201518160010190805190602001906105e7929190610909565b506040820151816002015550503373ffffffffffffffffffffffffffffffffffffffff167ff3bb4a59f9a41b07650fa6eb0aaaf8f6e78fe9a712e0c0989ee060358403a89c428360405161063c929190610d2f565b60405180910390a250565b60606004805480602002602001604051908101604052809291908181526020016000905b8282101561078f57838290600052602060002090600302016040518060600160405290816000820160009054906101000a900473ffffffffffffffffffffffffffffffffffffffff1673ffffffffffffffffffffffffffffffffffffffff1673ffffffffffffffffffffffffffffffffffffffff1681526020016001820180546106f490610efa565b80601f016020809104026020016040519081016040528092919081815260200182805461072090610efa565b801561076d5780601f106107425761010080835404028352916020019161076d565b820191906000526020600020905b81548152906001019060200180831161075057829003601f168201915b505050505081526020016002820154815250508152602001906001019061066b565b50505050905090565b60008054905090565b6000600254905090565b610841816040516024016107bf9190610cd2565b6040516020818303038152906040527f41304fac000000000000000000000000000000000000000000000000000000007bffffffffffffffffffffffffffffffffffffffffffffffffffffffff19166020820180517bffffffffffffffffffffffffffffffffffffffffffffffffffffffff83818316178352505050506108e0565b50565b6108dc828260405160240161085a929190610c80565b6040516020818303038152906040527f759f86bb000000000000000000000000000000000000000000000000000000007bffffffffffffffffffffffffffffffffffffffffffffffffffffffff19166020820180517bffffffffffffffffffffffffffffffffffffffffffffffffffffffff83818316178352505050506108e0565b5050565b60008151905060006a636f6e736f6c652e6c6f679050602083016000808483855afa5050505050565b82805461091590610efa565b90600052602060002090601f016020900481019282610937576000855561097e565b82601f1061095057805160ff191683800117855561097e565b8280016001018555821561097e579182015b8281111561097d578251825591602001919060010190610962565b5b50905061098b919061098f565b5090565b5b808211156109a8576000816000905550600101610990565b5090565b60006109bf6109ba84610d90565b610d5f565b9050828152602081018484840111156109d757600080fd5b6109e2848285610eb8565b509392505050565b6000813590506109f981610fca565b92915050565b600082601f830112610a1057600080fd5b8135610a208482602086016109ac565b91505092915050565b600060208284031215610a3b57600080fd5b6000610a49848285016109ea565b91505092915050565b600060208284031215610a6457600080fd5b600082013567ffffffffffffffff811115610a7e57600080fd5b610a8a848285016109ff565b91505092915050565b6000610a9f8383610c12565b905092915050565b610ab081610e7c565b82525050565b610abf81610e7c565b82525050565b6000610ad082610dd0565b610ada8185610df3565b935083602082028501610aec85610dc0565b8060005b85811015610b285784840389528151610b098582610a93565b9450610b1483610de6565b925060208a01995050600181019050610af0565b50829750879550505050505092915050565b6000610b4582610ddb565b610b4f8185610e04565b9350610b5f818560208601610ec7565b610b6881610fb9565b840191505092915050565b6000610b7e82610ddb565b610b888185610e15565b9350610b98818560208601610ec7565b610ba181610fb9565b840191505092915050565b6000610bb9602583610e15565b91507f57616974203130207365636f6e647373206265666f726520766f74696e67206160008301527f6761696e210000000000000000000000000000000000000000000000000000006020830152604082019050919050565b6000606083016000830151610c2a6000860182610aa7565b5060208301518482036020860152610c428282610b3a565b9150506040830151610c576040860182610c62565b508091505092915050565b610c6b81610eae565b82525050565b610c7a81610eae565b82525050565b6000604082019050610c956000830185610ab6565b8181036020830152610ca78184610b73565b90509392505050565b60006020820190508181036000830152610cca8184610ac5565b905092915050565b60006020820190508181036000830152610cec8184610b73565b905092915050565b60006020820190508181036000830152610d0d81610bac565b9050919050565b6000602082019050610d296000830184610c71565b92915050565b6000604082019050610d446000830185610c71565b8181036020830152610d568184610b73565b90509392505050565b6000604051905081810181811067ffffffffffffffff82111715610d8657610d85610f8a565b5b8060405250919050565b600067ffffffffffffffff821115610dab57610daa610f8a565b5b601f19601f8301169050602081019050919050565b6000819050602082019050919050565b600081519050919050565b600081519050919050565b6000602082019050919050565b600082825260208201905092915050565b600082825260208201905092915050565b600082825260208201905092915050565b6000610e3182610eae565b9150610e3c83610eae565b9250827fffffffffffffffffffffffffffffffffffffffffffffffffffffffffffffffff03821115610e7157610e70610f2c565b5b828201905092915050565b6000610e8782610e8e565b9050919050565b600073ffffffffffffffffffffffffffffffffffffffff82169050919050565b6000819050919050565b82818337600083830152505050565b60005b83811015610ee5578082015181840152602081019050610eca565b83811115610ef4576000848401525b50505050565b60006002820490506001821680610f1257607f821691505b60208210811415610f2657610f25610f5b565b5b50919050565b7f4e487b7100000000000000000000000000000000000000000000000000000000600052601160045260246000fd5b7f4e487b7100000000000000000000000000000000000000000000000000000000600052602260045260246000fd5b7f4e487b7100000000000000000000000000000000000000000000000000000000600052604160045260246000fd5b6000601f19601f8301169050919050565b610fd381610e7c565b8114610fde57600080fd5b5056fea2646970667358221220731f895f609277968f09c31dc8fd0f33152fd7832a668fc922acdc9baf1fa09264736f6c63430008000033",
  "linkReferences": {},
  "deployedLinkReferences": {}
}